:020000040800F2
:1000000070B10020D9060008E5040008E7040008E4
:10001000EB040008EF040008F304000800000000EF
:10002000000000000000000000000000B90200080D
:10003000F704000800000000FD0200085D09010847
:10004000F3060008F3060008F3060008F3060008AC
:10005000F3060008F3060008B1C50008F30600081F
:10006000DDC500080BC6000835C60008F306000809
:10007000F3060008F3060008F3060008F30600087C
:10008000F3060008F3060008F3060008F30600086C
:10009000F3060008F3060008F30600086FC700081F
:1000A000F3060008F3060008F3060008F30600084C
:1000B000F306000867C800081D130108F3060008CE
:1000C000F3060008F3060008F3060008F30600082C
:1000D000F3060008150B0108230C0108C5BD000834
:1000E000F3060008F3060008F3060008F30600080C
:1000F000F3060008F3060008F3060008F3060008FC
:10010000F3060008F3060008B5C90008F306000866
:10011000F3060008F3060008F9CA000845BF000806
:10012000F3060008F3060008F3060008F3060008CB
:1001300000F002F800F0B0F80AA090E8000C824449
:100140008344AAF10107DA4501D100F0A5F8AFF226
:10015000090EBAE80F0013F0010F18BFFB1A43F0A5
:10016000010318477C7D01009C7D01000A444FF08B
:10017000000C10F8013B13F0070408BF10F8014B06
:100180001D1108BF10F8015B641E05D010F8016B4B
:10019000641E01F8016BF9D113F0080F1EBF10F8AF
:1001A000014BAD1C0C1B09D16D1E58BF01F801CBD2
:1001B000FAD505E014F8016B01F8016B6D1EF9D555
:1001C0009142D6D37047000000230024002500266A
:1001D000103A28BF78C1FBD8520728BF30C148BFAA
:1001E0000B6070476E2912F0C281702911F03187BF
:1001F000662915F05A81652915F05781672915F090
:100200005481612915F0538103681B0A28BF41F00E
:100210008001692911F0A286642911F09F86752951
:1002200011F09C866F2912F0C884782911F0FD86A0
:10023000E92912F06384E42912F06084F52912F0B0
:100240005D84EF2912F0C584F82911F0FC8603685B
:10025000DB0928BF41F08001632912F0D2837329A2
:1002600012F0D783E32912F02987F32912F02E87A1
:10027000002070471FB512F00BFD04000020002184
:1002800013F0F2FF401C60600020002113F0D6FF45
:10029000E0601FBD10B510BD12F0DEFF1146FFF784
:1002A000E9FF00F0EDF813F005F803B4FFF7F2FFF3
:1002B00003BC10F0D5FB0000224B19680868B0E8B9
:1002C000F00F80F30988BFF36F8F4FF0000080F3C9
:1002D00011884EF00D0E70470000000006480068BF
:1002E000006880F3088862B661B6BFF34F8FBFF332
:1002F0006F8F00DF00BF00BF08ED00E0EFF3098063
:10030000BFF36F8F0F4B1A6820E9F00F106008B52C
:100310004FF0500080F31188BFF34F8FBFF36F8F02
:1003200004F01DF94FF0000080F31188BDE808408B
:1003300019680868B0E8F00F80F30988BFF36F8F81
:10034000704700BF2C000020EFF3058070470000CD
:100350001CB510F00BFB4FF4A06000F0DDF90AF0C3
:10036000B7FC4FF416400BF05CFD4FF4E13010F099
:1003700085FB4FF4165010F00AFC06F032FE0AF02E
:1003800024FE06F02EFE444841684820884705F0C8
:1003900001FF0AF06EFD05F02BFE05F082FE0AF06B
:1003A00014FE0BE04FF6FF709223EF2282210090A3
:1003B0001E200AF0C0F9C82010F01FFB0AF059FDFA
:1003C0000028EFD118E035A010210B46C822CDE956
:1003D000001082211E200AF048FCC82010F00DFBFE
:1003E0004FF6FF709223EF22822100901E200AF028
:1003F000A2F9C82010F001FB0EF0F2FB0028E2D1B8
:1004000005200BF0B1FC002839D028A010210B46A4
:10041000C822CDE9001078211E200AF026FC00BF7A
:100420004FF416500BF0FDFC03200BF033FC4FF49F
:1004300016400BF0F6FC23480BF057FC22490870DD
:1004400005200BF091FC18B11F4800780028E7D177
:100450001EA010210B46C822CDE9001078211E20D5
:100460000AF003FC4FF4FA7010F0C7FA4FF6FF7071
:100470008823E622782100901E200AF05CF91CBD3A
:10048000FFF766FF642010F0B8FA0FF003FC04F0E9
:10049000E8F900BFFEE70000044D00204D5055363E
:1004A000303530204572726F72000000536B795402
:1004B000726146382D42442053657474696E672E0C
:1004C0002E2E0000A086010000000020536B7954FE
:1004D000726146382D42442053657420446F6E6526
:1004E00021210000704700BFFEE700BFFEE700BF0C
:1004F000FEE700BFFEE770470CB5002001900090BA
:100500006C48006840F480306A49086000BF694860
:10051000006800F4003000900198401C01900098A1
:1005200018B90198B0F5A06FF1D16248006800F4E5
:10053000003010B10120009001E0002000900098F0
:10054000012843D15C48006840F010005A49086017
:100550000846006820F0030008600846006840F084
:1005600002000860534840685249486008464068A5
:1005700048600846406840F480604860084640682B
:1005800020F47C1048600846406840F4E810486059
:100590000846006840F08070086000BF4548006869
:1005A00000F000700028F9D04248406820F00300B5
:1005B000404948600846406840F00200486000BF7B
:1005C0003C48406800F00C000828F9D10CBD10B57B
:1005D000FFF792FF10BD10B53648006840F00100EB
:1005E0003449086008464068344908403149486049
:1005F00008460068324908402E49086008460068ED
:1006000020F4802008600846406820F4FE0048601E
:100610004FF41F008860FFF7DAFF4FF000602949B0
:10062000086010BD10B5002100200022214B5B683E
:1006300003F00C0121B1042906D0082928D107E0D4
:10064000214B224C236027E01F4B204C236023E0EA
:10065000184B5B6803F47010164B5B6803F4803230
:10066000022303EB904022B9194B4343174C2360FC
:100670000DE0104B5B6803F4003323B1144B43438C
:10068000124C236003E0104B4343104C236003E003
:100690000D4B0E4C236000BF00BF064B5B68C3F3DD
:1006A00003130C4CE15C094B1B68CB40074C2360E7
:1006B00010BD000000100240002002400000FFF8C2
:1006C000FFFFF6FE08ED00E000127A0004000020B3
:1006D00000093D00080000200948804709480047FC
:1006E000FEE7FEE7FEE7FEE7FEE7FEE7FEE7FEE7E2
:1006F000FEE7FEE704480549054A064B704700003F
:10070000D70500083101000870AB002070B100204F
:1007100070AD002070AD002031490143314A1160B5
:10072000704770B5002100230F22C47804B32D4C0C
:10073000246804F4E064C4F5E064210AC1F1040310
:10074000CA40447804FA03F1847814402143090133
:10075000254C0678A155047804F01F050124AC400F
:1007600005786D11AD0005F1E025C5F8004109E0FF
:10077000047804F01F050124AC401C4D0678761166
:1007800045F8264070BD1A4A0A400243154B1B1F0C
:100790001A60704739B1134A121D12680243114B97
:1007A0001B1D1A6006E00F4A121D126882430D4B92
:1007B0001B1D1A607047042808D14FF0E021096919
:1007C00041F004014FF0E022116107E04FF0E02119
:1007D000096921F004014FF0E02211617047000027
:1007E0000000FA050CED00E000E400E080E100E02C
:1007F00080FFFF1F10B50446FA48844208D101214A
:10080000401501F013FA0021601501F00FFA17E00E
:10081000F548844208D10121001501F007FA0021B2
:10082000201501F003FA0BE0F048844208D10121C1
:10083000C80301F0FBF900214FF4004001F0F6F984
:1008400010BD30B50246002000235068E84C20401F
:100850000D790C6844EA0524204350609068E54C0B
:100860002040D1E902542C434D7944EA4504204309
:100870009060D06A20F470000C7C641EE4B22343C4
:1008800040EA0350D06230BD002101600171417126
:100890008160C16001210174704721B1826842F01A
:1008A0000102826003E0826822F0010282607047E8
:1008B00021B1826842F48072826003E0826822F48F
:1008C00080728260704710B50023CBB21AB14468C1
:1008D0001C43446002E044689C43446010BD81684E
:1008E00041F0080181607047014600208A6802F0EB
:1008F00008020AB1012000E000207047816841F041
:10090000040181607047014600208A6802F00402F9
:100910000AB1012000E00020704721B1826842F452
:10092000A002826003E0826822F4A0028260704725
:10093000014600208A6802F480020AB1012000E02A
:100940000020704710B50A4600210023416821F4B9
:100950006041531E41EA4331416010BD21B14268FC
:1009600042F40062426003E0426822F400624260A6
:100970007047F0B504460D4600200021092D11DD19
:10098000E068A5F10A0606EB4607072606FA07F116
:100990008843A5F10A0606EB460603FA06F108436A
:1009A000E0600CE0206905EB4507072606FA07F131
:1009B000884305EB450603FA06F108432061072A40
:1009C0000FDA606B561E06EB86071F2606FA07F144
:1009D0008843561E06EB860605FA06F10843606357
:1009E00022E00D2A0FDA206BD61F06EB86071F26A2
:1009F00006FA07F18843D61F06EB860605FA06F1CC
:100A00000843206310E0E06AA2F10D0606EB8607BA
:100A10001F2606FA07F18843A2F10D0606EB8606AB
:100A200005FA06F10843E062F0BD21B1826842F4A4
:100A30008012826003E0826822F480128260704734
:100A40000146C86C80B2704766484C3000687047F9
:100A500021B1426842F48062426003E0426822F4BD
:100A600080624260704721B1426842F48052426025
:100A700003E0426822F48052426070470A46002137
:100A8000816821F4E04111438160704721B182689F
:100A900042F40042826003E0826822F400428260F5
:100AA000704721B1826842F40212826003E08268DA
:100AB00022F4021282607047014600208A6802F424
:100AC00000120AB1012000E000207047F0B5044692
:100AD0001546002000220026092911DDE068A1F159
:100AE0000A0707EB470C072707FA0CF29043A1F11E
:100AF0000A0707EB470703FA07F21043E0600CE030
:100B0000206901EB410C072707FA0CF2904301EB37
:100B1000410703FA07F210432061A06BC0F30156AE
:100B2000EF1C06F1010CA7EB0C0707EB870C1F2746
:100B300007FA0CF29043EF1C06F1010CA7EB0C072F
:100B400007EB870701FA07F21043A063F0BD10B569
:100B50000A4600210023816B21F44011531E41EA13
:100B60000351816310BD08B5002300930090009BE2
:100B70000B440093009B1A6008BD08B50246002094
:100B80000090009201F12800009B1844009000980A
:100B9000006880B208BD0A4600214168164B194022
:100BA0001143416070474162826270470A460021EA
:100BB000416821F01F0111434160704740B109496C
:100BC0000831096841F40001064A0832116007E063
:100BD00004490831096821F40001024A0832116011
:100BE000704700000024014000280140003C014003
:100BF000FFFEF0FFFDF7F1FFFFFD3FFF0246002083
:100C000013680B400BB1012000E000207047CA437D
:100C10000260704770B502460020002300240B12CA
:100C20005568CEB205EA060415681D4015B10CB131
:100C3000012000E0002070BD00220A12D3430360AF
:100C40007047000001684FF6FE72114001600021FC
:100C5000016041608160C1608D49884208D18C4942
:100C60000839496841F00F01894A083A51608AE021
:100C700087491431884208D185490839496841F0CB
:100C8000F001834A083A51607DE081492831884269
:100C900008D17F490839496841F470617C4A083AB3
:100CA000516070E07A493C31884208D1784908396E
:100CB000496841F47041764A083A516063E07449EA
:100CC0005031884208D172490839496841F470218D
:100CD0006F4A083A516056E06D496431884208D144
:100CE0006B490839496841F47001694A083A516012
:100CF00049E067497831884208D16549083949682F
:100D000041F07061624A083A51603CE061498842B2
:100D100006D1011F096841F00F01021F116032E086
:100D20005C491431884208D15A49091F096841F0C9
:100D3000F001584A121F116025E0564928318842B7
:100D400008D15449091F096841F47061514A121FC2
:100D5000116018E04F493C31884208D14D49091FC4
:100D6000096841F470414B4A121F11600BE0494978
:100D70005031884207D14749091F096841F4702161
:100D8000444A121F1160704710B50022026847F6EE
:100D9000F0739A430C6A8B6823430C6923434C69B4
:100DA00023438C692343CC6923434C6A23438C6AD5
:100DB00023431A430260CB6843600B6883604B682F
:100DC000C36010BD0021016041608160C1600161AC
:100DD00041618161C161016241628162704721B1FB
:100DE000026842F00102026004E002684FF6FE73FE
:100DF0001A40026070471AB103680B43036002E0B7
:100E000003688B4303607047416070470146486840
:100E100080B2704701460020002201F080531BB1D0
:100E20001C4B083B1A6802E0194B083B1A6802EA9F
:100E300001030BB1012000E00020704700F0805159
:100E400019B11449091F086002E0114908394860C6
:100E5000704701460020002201F080531BB10D4B6A
:100E6000083B1A6802E00A4B083B1A6802EA0103D1
:100E70000BB1012000E00020704700F0805119B153
:100E80000449091F086002E00149083948607047B9
:100E90000800024008040240002044490860091D7F
:100EA0000860091D0860091D086041483F49143168
:100EB0000860704700213D498279002A3AD00A46ED
:100EC000126803689A430B461A600A1D1268036889
:100ED0009A430B1D1A60027911440A6803681A4389
:100EE0000A60324A0832126803689A432F4B08336B
:100EF0001A601A1D126803689A432C4B0C331A604F
:100F00004279102A0ED11A1F126803681A43274B20
:100F100008331A601A1D126803681A43234B0C33F6
:100F20001A600DE02149427911440A6803681A43A6
:100F30000A6005E0027911440A6803689A430A606E
:100F400070470021016001710C2141710021817104
:100F500070471649103109680143144A1032116074
:100F6000704701460020114A143212680A400AB143
:100F7000012000E0002070470C49143108607047E0
:100F8000014600200022094B1B6803EA0102074BBF
:100F900014331B680B4013B10AB1012000E000209C
:100FA0007047024914310860704700000004014096
:100FB000FFFF0F0030B943F2DB028100A1F1C04115
:100FC0000A6005E043F2D2028100A1F1C0410A604B
:100FD0006FF07042411C8900A1F1C0410A6081009C
:100FE000A1F1C041C1F80421704710280AD118218D
:100FF0004FF020421166402151664FF0FC3191665E
:10100000D16610E01821F74A116040214FF02042CC
:10101000C2F884104FF0FC31F24A083211604FF0F0
:101020002042C2F88C1070471820EE492031086029
:1010300000200906C1F8A4004FF0FC30E94928312E
:101040000860091D0860091D08607047D0E9011299
:101050001143C26811430269114342691143826915
:101060001143C2691143026A1143426A1143826A01
:101070001143C26A1143026B114302689200A2F14C
:10108000C0421160816808290BD101688900A1F173
:10109000C041096841F0400201688900A1F1C041E6
:1010A0000A60416B0968426B526841EA0211426B67
:1010B000926841EA0221426B928941EA0241426B05
:1010C000128A41EA0251426B127D41EA0261426B8F
:1010D000926911430268521C9200A2F1C042116051
:1010E000C16AB1F5804F1BD1816B0968826B526870
:1010F00041EA0211826B926841EA0221826B128AF4
:1011000041EA0251826B127D41EA0261826B92696F
:10111000114302689200A2F1C042C2F8041107E034
:101120006FF0704201688900A1F1C041C1F804214B
:10113000704730B5002100220023446844F00804C1
:1011400085682C43C5682C4305692C43456944EAEE
:101150004524856944EA4531C4692468C5696D68D8
:1011600044EA0524C5692D8944EA0544C5692D7BF7
:1011700044EA0562046A2468056A6D6844EA052445
:10118000056A2D8944EA0544056A2D7B44EA056316
:101190000468102C05D14FF020442166A266E36656
:1011A00008E0904C21604FF02044C4F888208D4C1A
:1011B0000C34236030BD016841F01001426841EAFF
:1011C0004221826841EA4231864A20321160C16878
:1011D0000968C268526841EA0221C268128941EA7C
:1011E0000241C268127B41EA02617E4A28321160E4
:1011F000016909680269526841EA0221026912899B
:1012000041EA02410269127B41EA0261754A2C32CD
:101210001160416909684269526841EA02214269E4
:10122000128941EA02414269127B41EA02614FF0B0
:101230002042C2F8B01070470021016002214160D5
:1012400000218160C160016141618161C161016210
:101250004FF480514162490081620021C162016303
:101260000F21426B1160426B5160FF21426B916014
:101270000F21426BD160426B1161426B51610021C1
:10128000426B91610F21826B1160826B5160FF2173
:10129000826B91600F21826BD160826B1161826BD6
:1012A00051610021826B9161704710210160002122
:1012B00041608160C160016141618161FC21C2695D
:1012C0001160C2695160C2699160C269D160026AED
:1012D0001160026A5160026A9160026AD1607047CF
:1012E0000021016041608160FC21C2681160C26818
:1012F0005160C2689160C268D16002691160026980
:101300005160026991600269D1604269116042696D
:101310005160426991604269D160704751B1820069
:10132000A2F1C042126842F001038200A2F1C04261
:10133000136009E08200A2F1C04212682A4B1A40F1
:101340008300A3F1C0431A60704799B1102808D1F7
:101350004FF02042126E42F004024FF020431A6612
:101360001DE0204A126842F004024FF02043C3F807
:10137000802014E0102809D14FF02042126E1A4B41
:10138000DB1E1A404FF020431A6608E0154A126827
:10139000154BDB1E1A404FF02043C3F880207047E6
:1013A00048B110492031096841F004014FF0204252
:1013B000C2F8A01009E00B49203109680A4AD21E80
:1013C00011404FF02042C2F8A0107047B9B1102868
:1013D0000CD14FF02042126E42F040024FF02043F9
:1013E0001A661FE0800000A0FEFF0F00724A12681C
:1013F00042F040024FF02043C3F8802012E0102852
:1014000008D14FF02042126E6C4B1A404FF020432F
:101410001A6607E0684A1268684B1A404FF020438A
:10142000C3F88020704701460020102903D14FF0F7
:101430002042506F02E0604A14321068704710B5C5
:10144000F2B1102807D14FF020435B6E0B434FF0F1
:101450002044636632E0B0F5807F08D1564B1B1DF7
:101460001B680B434FF02044C4F8843026E0524BF5
:1014700024331B680B434FF02044C4F8A4301DE014
:10148000102807D14FF020435B6E8B434FF0204470
:10149000636613E0B0F5807F08D1474B1B1D1B68C6
:1014A0008B434FF02044C4F8843007E0424B243390
:1014B0001B688B434FF02044C4F8A43010BD10B516
:1014C000024600200023102A03D14FF02044636E0F
:1014D00009E0B2F5807F03D1374C241D236802E078
:1014E000354C2434236803EA01040CB1012000E0E8
:1014F000002010BD102807D14FF02042526E8A43C1
:101500004FF020435A6613E0B0F5807F08D12A4A95
:10151000121D12688A434FF02043C3F8842007E06D
:10152000254A243212688A434FF02043C3F8A4208E
:10153000704770B502460020002300240025102AC1
:1015400003D14FF02046736E09E0B2F5807F03D1DE
:10155000194E361D336802E0174E2436336803EA0D
:10156000010403EAD10514B10DB1012000E000200F
:1015700070BD102808D14FF02042526E22EAD102ED
:101580004FF020435A6615E0B0F5807F09D10A4A32
:10159000121D126822EAD1024FF02043C3F88420C2
:1015A00008E0054A2432126822EAD1024FF02043B3
:1015B000C3F8A42070470000800000A0BFFF0F0008
:1015C00010B50446CC48844208D10121042000F023
:1015D0002DFB0021042000F029FB46E0C74884428F
:1015E00008D10121082000F021FB0021082000F093
:1015F0001DFB3AE0C248844208D10121102000F0CE
:1016000015FB0021102000F011FB2EE0BD488442A4
:1016100008D10121202000F009FB0021202000F04A
:1016200005FB22E0B848844208D10121402000F0A7
:10163000FDFA0021402000F0F9FA16E0B348844298
:1016400008D10121802000F0F1FA0021802000F073
:10165000EDFA0AE0AE48844207D10121801500F07E
:10166000E5FA0021A01500F0E1FA10BD10B5012146
:10167000084600F0DBFA0021012000F0D7FA10BD87
:101680002DE9F04102460025002600200023002419
:10169000002791F803C00CF00F0591F803C00CF07F
:1016A000100CBCF1000F03D091F802C04CEA050504
:1016B00091F800C0BCF1000F31D0146800202BE07D
:1016C0004FF0010C0CFA00F3B1F800C00CEA03066D
:1016D0009E4220D183004FF00F0C0CFA03F7BC435D
:1016E00005FA03FC4CEA040491F803C0BCF1280F8E
:1016F00006D14FF0010C0CFA00FCC2F814C00AE04D
:1017000091F803C0BCF1480F05D14FF0010C0CFA61
:1017100000FCC2F810C0401C0828D1D31460B1F8F6
:1017200000C0BCF1FF0F34DD546800202EE000F152
:10173000080C4FF0010808FA0CF3B1F800C00CEAED
:1017400003069E4221D183004FF00F0C0CFA03F7E1
:10175000BC4305FA03FC4CEA040491F803C0BCF155
:10176000280F05D100F1080C08FA0CF8C2F8148013
:1017700091F803C0BCF1480F07D100F1080C4FF0FD
:10178000010808FA0CF8C2F81080401C0828CED3D3
:101790005460BDE8F0814FF6FF7101800221817035
:1017A0000421C17070470246002093680B400BB1C2
:1017B000012000E0002070470146886880B2704731
:1017C00002460020D3680B400BB1012000E000204E
:1017D00070470146C86880B2704701617047416137
:1017E00070470AB1016100E041617047C160704714
:1017F0004FF480320A438261816182618269826929
:10180000704702460020434B18684FF6807318401B
:1018100040EA021008433F4B186070473E49C861D8
:101820007047F0B50A46002300240021002500F08F
:101830000046B6F1004F02D1364EF16901E0354E57
:101840007168C0F3034583B200F44016B6F5401F3B
:1018500008D121F070612F4E766826F070662D4F0A
:101860007E6012E000F48016B6F5801F06D10326D4
:1018700006FA05F4A14341F0706106E0460D360119
:1018800003FA06F6B14341F0706122B1460D36010C
:1018900003FA06F6314300F00046B6F1004F02D1DC
:1018A0001C4EF16101E01B4E7160F0BD30B50022AD
:1018B0008B071C0F0F2303FA04F2164B08338C100E
:1018C00053F824309343134C08348D1044F82530DA
:1018D00023468C1053F824308C07240F00FA04F4AC
:1018E00023430C4C08348D1044F8253030BD0A4990
:1018F000DC3108607047000000080140000C014026
:10190000001001400014014000180140001C01407B
:10191000002001400000014000002042DF48006834
:1019200040F00100DD49086008464068DC49084095
:10193000DA49486008460068DA490840D749086033
:101940000846006820F4802008600846406820F4BB
:10195000FE0048604FF41F0088607047CF49096857
:1019600021F48031CD4A11601146096821F48021AB
:101970001160B0F5803F03D0B0F5802F0ED106E0A6
:10198000C649096841F48031C44A116007E0C3497F
:10199000096841F4A021C14A116000E000BF00BF06
:1019A000704710B501460022002300204A11012A89
:1019B00002D1BA4C236806E0022A02D1B74C236A4E
:1019C00001E0B64C636A01F01F02012494401C4000
:1019D0000CB1012000E0002010BD38B500200090BF
:1019E0000024002500BF3120FFF7DBFF05460098EB
:1019F000401C00900098B0F5A06F01D0002DF2D0EF
:101A00003120FFF7CEFF08B1012400E0002420467A
:101A100038BD01460020A14A106820F0F80040EAD5
:101A2000C10010607047A04908607047024600205E
:101A30009A4B586820F47C1042EA01031843974BF4
:101A40005860704798490866704701460020934ADD
:101A5000506820F003000843506070478F4840688A
:101A600000F00C007047014600208C4A506820F0BE
:101A7000F00008435060704701460020874A5068D4
:101A800020F4E06008435060704701460020834A1C
:101A9000506820F4605040EAC1005060704729B19E
:101AA0007E4A527A02437D4B5A7204E07B4A527A54
:101AB00082437A4B5A7270477B49D831086070472D
:101AC00001460020754A506820F4404008435060A9
:101AD00070470021714A20321170704A82F820103C
:101AE000012802D004280AD104E001216B4A2032E7
:101AF000117005E00521694A2032117000E000BF35
:101B000000BF70476949086070476449096A01432A
:101B1000624A11627047654944390860704730B5C0
:101B200000210022002400235C4D6D6805F00C01AB
:101B300021B1042905D0082923D105E05C4D0560B9
:101B400022E05B4D05601FE0544D6D6805F4701296
:101B5000524D6D6805F48034022505EB92421CB9A4
:101B6000544D554305600BE04C4D6D6805F4003550
:101B70001DB1504D5543056002E04D4D5543056084
:101B800002E04B4D056000BF00BF444D6D6805F09D
:101B9000F0010909484D6B5C0568DD4045603F4D2B
:101BA0006D6805F4E061090A434D6B5C4568DD40F2
:101BB00085603A4D6D6805F46051C90A3E4D6B5C15
:101BC0004568DD40C560354D6D6805F44041890BC1
:101BD0003A4D6B5CC568B5FBF3F5056130BD29B1C5
:101BE0002E4A526902432D4B5A6104E02B4A526936
:101BF00082432A4B5A61704729B1284A92690243AD
:101C0000264B9A6104E0254A92698243234B9A61EC
:101C1000704729B1214AD2690243204BDA6104E0BE
:101C20001E4AD26982431D4BDA61704729B11B4AB3
:101C3000D2680243194BDA6004E0184AD268824342
:101C4000164BDA60704729B1144A12690243134BEC
:101C50001A6104E0114A12698243104B1A617047FD
:101C600012494039086070470F49C86470470B49F2
:101C7000C87170470948406A40F08070074948625F
:101C8000704701460020054A92680A400AB10120C7
:101C900000E0002070470149887270470010024040
:101CA0000000FFF8FFFFF6FE0000424280044242BF
:101CB00000127A0000093D001800002028000020D2
:101CC00010B50446FE48844208D10121C014FFF734
:101CD000ADFF0021E014FFF7A9FFC4E0B4F1804F8D
:101CE00008D101210846FFF7AEFF00210120FFF7D0
:101CF000AAFFB8E0F348844208D101210220FFF78F
:101D0000A2FF00210220FFF79EFFACE0EE488442D4
:101D100008D101210420FFF796FF00210420FFF7DE
:101D200092FFA0E0E948844208D101210820FFF792
:101D30008AFF00210820FFF786FF94E0E4488442F0
:101D400008D101211020FFF77EFF00211020FFF7AE
:101D50007AFF88E0DF48844208D101212020FFF784
:101D600072FF00212020FFF76EFF7CE0DA488442FA
:101D700008D101214014FFF759FF00216014FFF73B
:101D800055FF70E0D548844209D10121C804FFF70E
:101D90004DFF00214FF40020FFF748FF63E0D048DB
:101DA000844209D101210805FFF740FF00214FF4CB
:101DB0008010FFF73BFF56E0CA48844209D1012159
:101DC0004805FFF733FF00214FF40010FFF72EFF07
:101DD00049E0C548844208D101214020FFF733FF84
:101DE00000214020FFF72FFF3DE0C048844208D18A
:101DF00001218020FFF727FF00218020FFF723FF2C
:101E000031E0BB48844208D101218015FFF71BFF58
:101E10000021A015FFF717FF25E0B648844209D13D
:101E200001210804FFF702FF00214FF48030FFF783
:101E3000FDFE18E0B048844209D101214804FFF7B3
:101E4000F5FE00214FF40030FFF7F0FE0BE0AB4849
:101E5000844208D101218804FFF7E8FE00214FF4F5
:101E60008020FFF7E3FE10BD00220288944B9842C9
:101E70000ED0994B98420BD0B0F1804F08D0914BC7
:101E8000984205D0904B984202D0904B984204D192
:101E90004FF68F731A404B881A438D4B984207D0E8
:101EA0008C4B984204D04FF6FF431A40CB881A431C
:101EB00002808B8883850B880385814B98420BD0E9
:101EC000854B984208D08B4B984205D08A4B98425C
:101ED00002D08A4B984201D10B7A03860123838278
:101EE000704770B5002400220023058C4FF6FE7663
:101EF00035400584028C8388048B4FF68F752C4007
:101F0000B51E2C400D882C43751E2A400D892A438E
:101F10004D882A436A4DA8420BD06F4DA84208D085
:101F2000744DA84205D0744DA84202D0734DA8420A
:101F300013D14FF6F7752A404D892A434FF6FB75AA
:101F40002A408D882A434FF6FF652B404FF6FF55F8
:101F50002B408D892B43CD892B4383800483CD88EF
:101F60008586028470BD70B5002400220023058C94
:101F70004FF6EF7635400584028C8388048B48F653
:101F8000FF752C404FF6FF452C400D884FF6FF762D
:101F900006EA05252C434FF6DF752A400D8906EA2F
:101FA00005152A434D8806EA05152A43444DA842E3
:101FB00002D0494DA8421DD14FF67F752A404D8968
:101FC0004FF6FF7606EA05152A434FF6BF752A40FD
:101FD0008D8806EA05152A434FF6FF352B404FF250
:101FE000FF752B408D8906EA85052B43CD8906EACE
:101FF00085052B4383800483CD880587028470BDCB
:1020000070B5002400220023058C4FF6FF66354092
:102010000584028C8388848B4FF68F752C404FF695
:10202000FC752C400D882C434FF6FF552A400D8936
:102030004FF6FF7606EA05252A434D8806EA052570
:102040002A431F4DA84202D0234DA8421DD14FF272
:10205000FF752A404D894FF6FF7606EA05252A438B
:102060004FF6FF352A408D8806EA05252A434EF6AD
:10207000FF752B404DF6FF752B408D8906EA05153F
:102080002B43CD8906EA05152B4383808483CD88B5
:102090008587028470BD70B5002200230024058C62
:1020A0004EF6FF7635400584038C8488828B48F693
:1020B000FF752A404FF6FF452A400D8820E00000BA
:1020C000002C01400004004000080040000C0040CB
:1020D000001000400014004000340140004C01405A
:1020E000005001400054014000180040001C004016
:1020F00000200040004001400044014000480140F1
:102100004FF6FF7606EA05252A434DF6FF752B406C
:102110000D8906EA05352B434D8806EA05352B4324
:10212000FA4DA84202D0FA4DA84208D14BF6FF75ED
:102130002C408D894FF6FF7606EA85152C43848066
:102140008283CD88A0F84050038470BD828B4FF20B
:10215000FF331A408283828B4FF6FF7303EA012319
:102160001A4382837047F0B50C46154600220021C1
:102170000026078C4EF6FF7C07EA0C070784828B4B
:10218000018C4FF6FF7707EA043640F6FF473A40E6
:102190004FF6FF7707EA05273A434FF6FF7707EA3E
:1021A00003373A43D94FB8420ED0D94FB8420BD07B
:1021B000B0F1804F08D0D74FB84205D0D64FB842C3
:1021C00002D0D64FB84206D14DF6FF77394046F4DB
:1021D0008057394305E047F6FF57394044F48057AC
:1021E000394382830184F0BD828B4FF6F3731A402A
:1021F0008283828B0A4382837047F0B50C46154672
:10220000002200210026078C4FF6FF6C07EA0C071E
:102210000784828B018C4FF6FF7707EA04264FF67E
:102220000C773A404FF6FF7707EA03172F433A43FC
:10223000B64FB8420ED0B64FB8420BD0B0F1804F77
:1022400008D0B44FB84205D0B34FB84202D0B34F14
:10225000B84206D14FF6FF57394046F480773943EC
:1022600005E04FF2FF57394044F4807739438283C9
:102270000184F0BD028B4FF2FF331A400283028BC0
:102280004FF6FF7303EA01231A4302837047F0B548
:102290000C461546002200210026078C4FF6EF7CE5
:1022A00007EA0C070784028B018C4FF6FF7707EAD9
:1022B000041640F6FF473A404FF6FF7707EA033728
:1022C0003A434FF6FF7707EA05273A438F4FB84264
:1022D0000ED08F4FB8420BD0B0F1804F08D08D4F49
:1022E000B84205D08C4FB84202D08C4FB84206D1CC
:1022F0004FF6DF77394046F01007394305E04FF6D7
:102300005F77394044F01007394302830184F0BD00
:10231000028B4FF6F3731A400283028B0A43028347
:102320007047F0B50C46154600220021068C4FF68A
:10233000FE773E400684028B018C4FF60C763240CD
:102340007E1C06EA03162E433243704EB0420ED076
:102350006F4EB0420BD0B0F1804F08D06D4EB042FE
:1023600005D06D4EB04202D06C4EB04206D14FF651
:10237000FD76314044F00106314305E04FF6F57635
:10238000314044F00106314302830184F0BD70B551
:1023900005460C465D4885420ED05D4885420BD00F
:1023A000B5F1804F08D05B48854205D05A48854238
:1023B00002D05A48854200D100E000BF208850B9C1
:1023C0002389A28861882846FFF7ABFFE188284669
:1023D000FFF79EFF25E0208804280AD12389A288E0
:1023E00061882846FFF753FFE1882846FFF742FF40
:1023F00017E0208808280AD12389A2886188284606
:10240000FFF7FBFEE1882846FFF7EEFE09E023898F
:10241000A28861882846FFF7A6FEE1882846FFF7D4
:1024200095FE70BD2DE9F04105460C4600260127BA
:10243000608808B9022600E00026A088012801D1A2
:10244000022700E001272088A0B92389A28861889B
:102450002846FFF766FFE1882846FFF759FF2389E2
:102460003A4631462846FFF712FFE1882846FFF733
:1024700001FF13E02389A28861882846FFF707FF40
:10248000E1882846FFF7F6FE23893A46314628467A
:10249000FFF747FFE1882846FFF73AFFBDE8F081E4
:1024A0000A884B881A438B881A43CB881A430B89B6
:1024B0001A434B891A438B891A43A0F8442070476A
:1024C0004FF6FF71818000210180C180418001723F
:1024D00070470021018041808180C180018141815C
:1024E0008181C1817047002101804180012181806B
:1024F0000021C180018170470021018041808180DD
:10250000C18001814181818170470000002C014020
:10251000003401400004004000080040000C00406E
:1025200021B1028842F00102028004E002884FF6E5
:10253000FE731A400280704731B1B0F8442042F473
:102540000042A0F8442005E0B0F84420C2F30E0297
:10255000A0F8442070471AB183890B43838102E0BD
:1025600083898B43838170478182704741EA0203EC
:10257000A0F8483070471AB183890B43838102E089
:1025800083898B438381704701894FF6F87211402C
:10259000018170470A46002101894FF68F73194067
:1025A00011430181704730B504460D462946204647
:1025B000FFF7F0FF208940F00700208130BD2DE9B2
:1025C000F04104460D4616461F46602D06D13B4697
:1025D000012231462046FFF75AFE05E03B46012224
:1025E00031462046FFF79DFE29462046FFF7D2FFE1
:1025F000208940F007002081BDE8F08130B50C460D
:1026000000210189C9B24FF6FF7505EA032515437C
:1026100025432943018130BD2DE9F04105460E4691
:1026200017469846002443463A4631462846FFF767
:10263000E5FF2C894FF6F870044044F007044FF68C
:102640008F70044044F070042C81BDE8F081F0B537
:1026500004460D4616461F463B463246294620464E
:10266000FFF7CCFF208940F480402081F0BD018538
:10267000828270470A46002101884FF68F73194005
:10268000114301807047F0B50C4615461E460021E7
:10269000002200230189028B038C4FF6F877394022
:1026A00021434FF6FC473A4040F201173A434FF6B8
:1026B000DD773B404FF6FF7707EA06172F433B4392
:1026C000018102830384F0BD0A460021018B4FF68D
:1026D0008F7319401143018370470A460021018B13
:1026E00048F6FF7319404FF6FF7303EA02231943BC
:1026F000018370470A460021818B4FF68F73194082
:102700001143818370470A460021818B48F6FF738D
:1027100019404FF6FF7303EA022319438183704780
:1027200021B1028842F08002028004E002884FF664
:102730007F731A400280704721B1828842F0040200
:10274000828004E082884FF6FB731A4082807047D3
:1027500021B1828842F00802828004E082884FF62C
:10276000F7731A408280704721B1828842F00102DB
:10277000828004E082884FF6FE731A4082807047A0
:102780000A460021018B4FF6F7731940114301836C
:1027900070470A460021018B4FF2FF7319404FF634
:1027A000FF7303EA02231943018370470A4600219D
:1027B000818B4FF6F77319401143818370470A46A6
:1027C0000021818B4FF2FF7319404FF6FF7303EA2C
:1027D00002231943818370470A460021018B4FF67B
:1027E000FB7319401143018370470A460021018B96
:1027F0004FF6FF3319404FF6FF7303EA02231943E4
:10280000018370470A460021818B4FF6FB73194004
:102810001143818370470A460021818B4FF6FF33B5
:1028200019404FF6FF7303EA02231943818370476F
:102830000A460021018B4FF67F7319401143018333
:1028400070470A460021018BC1F30E014FF6FF735A
:1028500003EA02231943018370470A460021818B52
:102860004FF67F7319401143818370470A46002158
:10287000818BC1F30E014FF6FF7303EA0223194364
:10288000818370470A460021018C4FF6FD73194081
:102890001143018470470A460021018C4FF6F773FB
:1028A00019401143018470470A460021018C4FF6FC
:1028B000DF7319404FF6FF7303EA021319430184D3
:1028C00070470A460021018C4FF67F7319404FF67E
:1028D000FF7303EA02131943018470470A4600217B
:1028E000018C4FF6FF5319404FF6FF7303EA0223A2
:1028F0001943018470470A460021018C4FF2FF738F
:1029000019404FF6FF7303EA02231943018470470D
:102910000A460021018C4DF6FF7319404FF6FF73F4
:1029200003EA023319430184704730B500230124C0
:102930008C40A3B2048C9C430484048C02FA01F5FD
:10294000ADB22C43048430BD30B5002304248C4048
:10295000A3B2048C9C430484048C02FA01F5ADB24A
:102960002C43048430BD70B5034600200024184673
:10297000183001258D40ACB21D8CA5431D8409B1D2
:10298000082909D100EB6100056825F07005056094
:102990000568154305600EE00D1FC5F34E0528447C
:1029A000056825F4E045056005684FF6FF7606EA00
:1029B00002263543056070BD21B1028842F0020253
:1029C000028004E002884FF6FD731A4002807047CF
:1029D00021B1028842F00402028004E002884FF62E
:1029E000FB731A400280704721B1828842F0800256
:1029F000828004E082884FF67F731A40828070479D
:102A000002884FF6F7731A40028002880A43028058
:102A1000704782884FF68F731A40828082880A43FB
:102A20008280704702894FF6F8731A40028102894A
:102A30000A430281704702894FF67F731A40028170
:102A400002890A43028170478184704781857047FB
:102A5000818670470187704781877047A0F84010D2
:102A6000704702884FF6FF431A40028002880A43EB
:102A7000028070470146888E70470146088F704774
:102A80000146888F70470146B1F840007047014603
:102A9000888C70470146088D704702460020138AD3
:102AA0000B400BB1012000E000207047CA430282B6
:102AB000704730B50246002000230024158A05EA3D
:102AC0000103958905EA010413B10CB1012000E06E
:102AD000002030BDCA4302827047000010B5044692
:102AE000FB48844209D101218803FFF79FF80021A8
:102AF0004FF48040FFF79AF832E0F648844209D15B
:102B000001214804FFF79FF800214FF40030FFF740
:102B10009AF825E0F048844209D101218804FFF7A2
:102B200092F800214FF48020FFF78DF818E0EB4871
:102B3000844209D10121C804FFF785F800214FF430
:102B40000020FFF780F80BE0E548844208D101211E
:102B50000805FFF778F800214FF48010FFF773F8AD
:102B600010BD2DE9F04786B005460E460024A2466A
:102B700000BFA1460027B08900B100BF2F462C8AB4
:102B80004CF6FF700440F08804432C82AC894EF66A
:102B9000F3100440B0883189084371890843044325
:102BA000AC81AC8A4FF6FF400440B0890443AC824C
:102BB00001A8FEF7B4FFC648874202D1DDF810A095
:102BC00001E0DDF80CA0A88900F4004040B10AEB58
:102BD000CA0000EB0A1031684900B0FBF1F807E0C9
:102BE0000AEBCA0000EB0A1031688900B0FBF1F86B
:102BF0006420B8FBF0F004012009642101FB108976
:102C0000A88900F4004040B1322000EBC900B0FBBD
:102C1000F1F000F00700044308E0322000EB091057
:102C20006421B0FBF1F000F00F0004432C8106B0EA
:102C3000BDE8F0874FF41651016000218180C1800A
:102C400001810C21418100218181704710B502462C
:102C50000020108A4FF2FF0318400B884C88234352
:102C60008C882343CC8823431843108210BD002155
:102C7000018041808180C180704721B1828942F406
:102C80000052828104E082894DF6FF731A408281EE
:102C90007047F0B50346002400260025002040F6CA
:102CA0006A17B94200D100BF1846C1F3421401F0BF
:102CB0001F06012707FA06F5012C01D10C3004E0AC
:102CC000022C01D1103000E014301AB107682F43F4
:102CD000076002E00768AF430760F0BD1AB1838A5E
:102CE0000B43838202E0838A8B4383827047028A8C
:102CF0004FF6F0731A400282028A0A43028270473A
:102D000082894FF2FF731A40828182890A4382814D
:102D1000704721B1828942F00202828104E08289F7
:102D20004FF6FD731A4082817047028A4FF6DF73B7
:102D30001A400282028A0A430282704721B1028A43
:102D400042F48042028204E0028A4BF6FF731A408A
:102D500002827047C1F3080282807047014688886A
:102D6000C0F308007047818941F0010181817047FB
:102D7000028BD2B20283028B42EA012202837047A5
:102D8000028B02F47F420283028B0A430283704764
:102D900021B1828A42F02002828204E0828A4FF6C8
:102DA000DF731A408282704721B1828A42F010029A
:102DB000828204E0828A4FF6EF731A408282704763
:102DC00021B1828A42F00802828204E0828A4FF6B0
:102DD000F7731A408282704721B1828942F400421F
:102DE000828103E08289C2F30E028281704721B1A1
:102DF000828A42F40062828204E0828A4FF2FF7388
:102E00001A4082827047828A4FF6FB731A40828290
:102E1000828A0A438282704721B1828A42F002028A
:102E2000828204E0828A4FF6FD731A4082827047E4
:102E300002460020B1F5007F00D100BF13880B408F
:102E40000BB1012000E00020704701F40072B2F5E0
:102E5000007F00D100BFCA430280704770B50246B0
:102E6000002400230025002040F66A16B14200D15C
:102E700000BFC1F3421501F01F03012606FA03F358
:102E8000012D02D19689334006E0022D02D1168A27
:102E9000334001E0968A33400C12012606FA04F40E
:102EA0001688344013B10CB1012000E0002070BD41
:102EB00010B50022002340F66A14A14200D100BFE1
:102EC0000A1201249440A3B2DC43048010BD000028
:102ED000003801400044004000480040004C0040E1
:102EE0000050004000F1080141604FF0FF31816067
:102EF00000F10801C16001610021016070470021FB
:102F00000161704742684A6093688B6093685960BA
:102F10009160086103685B1C0360704710B502464E
:102F20000B685C1C0CB9106907E002F1080000E0B6
:102F30004068446824689C42FAD944684C604C68F4
:102F4000A160886041600A611468641C146010BD4F
:102F500001460A69D1E901309860D1E9010358605E
:102F60005068884201D1886850600020086110686C
:102F7000401E10601068704770B505460E462C461E
:102F80002CB940F21B12FAA1FEA00EF075FF02F060
:102F900034FED4E90F12206801FB020060600020BB
:102FA000A0632068A060E06B401E226C216800FBDB
:102FB0000210E060FF2084F8440084F845009EB9C8
:102FC000206908B9012000E00020A8B904F1100030
:102FD00001F0F9FD80B14FF08050EE490860BFF379
:102FE0004F8FBFF36F8F07E004F11000FFF77AFFF8
:102FF00004F12400FFF776FF02F022FE012070BDED
:103000002DE9F04106460D4617469846069C0DB937
:10301000246000E02760E663256401212046FFF775
:10302000ABFF84F850800020A064BDE8F0812DE95A
:10303000F84305460E4690460DB1012000E0002001
:1030400028B94FF4C472CAA1CEA00EF015FF0EB974
:10305000002701E005FB06F707F1540002F0D9FE56
:10306000044644B104F1540943464A4631462846D1
:103070000094FFF7C5FF2046BDE8F8832DE9F04135
:1030800004460F4615464FF00008A66B206C40B969
:10309000206860BB606801F0F4FE8046002060603C
:1030A00025E07DB93946226CA0680FF022F9216C29
:1030B000A0680844A060D4E90110884217D32068B2
:1030C000A06014E03946226CE0680FF012F9216C20
:1030D000E068401AE0602168E068884203D2216C11
:1030E0006068401AE060022D01D106B1761E701CA6
:1030F000A0634046BDE8F0812DE9F3410D460098FC
:10310000846C00272CB940F6CE1299A19DA00EF038
:10311000B3FEA06BE16B884201D2012000E00020E9
:1031200028B940F6CF1292A196A00EF0A5FEA06B92
:10313000E16B88421BD294F945602A4669462046D5
:10314000FFF79CFF0746701C60B9606A08B9012050
:1031500000E0002050B904F1240001F034FD28B152
:10316000012703E0701C40B284F8450000BF3846D8
:10317000BDE8FC8170B5044602F03FFD94F945506E
:103180001AE0A06C38B100212046FFF7B5FF88B1E6
:1031900001F0EDFD0EE0606A08B9012000E00020BA
:1031A00038B904F1240001F00EFD18B101F0DFFD83
:1031B00000E003E0681E45B2002DE2DC00BFFF2006
:1031C00084F8450002F03CFD02F017FD94F94450EC
:1031D00010E0206908B9012000E0002048B904F19E
:1031E000100001F0F0FC08B101F0C1FD681E45B20D
:1031F00000E001E0002DECDC00BFFF2084F844007B
:1032000002F01EFD70BD70B5054602F0F6FCA86B1D
:10321000E96B884201D1012400E0002402F010FD96
:10322000204670BD2DE9FF4383B0064688461D4603
:103230004FF0000934462CB940F2D9224CA151A0DC
:103240000EF01AFEB8F1000F01D1206C08B9012070
:1032500000E0002028B940F2DA2245A149A00EF092
:103260000BFE022D02D1E06B012801D1012000E00C
:10327000002028B940F2DB223DA142A00EF0FCFD67
:1032800001F0A1FD08B9059808B9012000E000206F
:1032900028B940F2DE2236A13AA00EF0EDFD00BFC3
:1032A00002F0ABFCA06BE16B884201D3022D38D158
:1032B0002A4641462046FFF7E1FE0746A06C68B16A
:1032C00029462046FFF718FF28B34FF080503149B8
:1032D0000860BFF34F8FBFF36F8F1CE0606A08B9BF
:1032E000012000E0002068B904F1240001F06BFC2B
:1032F00088B14FF0805027490860BFF34F8FBFF36C
:103300006F8F08E03FB14FF0805022490860BFF353
:103310004F8FBFF36F8F02F093FC012007B0BDE821
:10332000F083059818B902F08BFC0020F6E7B9F19C
:10333000000F04D101A801F0CAFC4FF0010902F00E
:103340007FFC00F082FF02F058FC94F94400401C1E
:1033500010B9002084F8440094F94500401C10B9CD
:10336000002084F8450002F06BFC05A901A813E0D9
:103370002E2E5C4672656552544F535C71756575AF
:10338000652E63004572726F723A25732C25640DA9
:103390000A00000004ED00E001F0ABFCF8B92046A3
:1033A000FFF731FFA8B104F11000059901F0ADFB62
:1033B0002046FFF7DFFE00F09DFE00287FF470AF8F
:1033C0004FF08050FA490860BFF34F8FBFF36F8F03
:1033D00066E72046FFF7CEFE00F08CFE60E7204651
:1033E000FFF7C8FE00F086FE002097E710B5044600
:1033F0004CB1002060602060E06000231A4619464E
:103400002046FFF70FFF10BD2DE9F04104460126CD
:103410000027224600210120FFF709FE0546284625
:10342000FFF7E4FF2846BDE8F08170B50646344654
:103430003CB940F24122AFF2C801AFF2B8000EF041
:103440001BFD01F0BDFC616888420CD1E068401EA4
:10345000E060E06828B900231A4619462046FFF7C5
:10346000E1FE012500E00025284670BD70B5054647
:1034700002F0C3FBA86B08B9012400E0002402F0AD
:10348000DFFB204670BD70B504460D46206C70B160
:10349000216CE0680844E0606168E068884201D31C
:1034A0002068E0602846226CE1680EF022FF70BDC3
:1034B0002DE9FF4782B005460E461F464FF0000A31
:1034C0002C463CB940F2DC42AFF25C11AFF24C103A
:1034D0000EF0D2FC0EB9206C08B9012000E00020EB
:1034E00038B940F2DD42AFF27811AFF268100EF059
:1034F000C3FC01F068FC08B9049808B9012000E099
:10350000002038B94FF49C62AFF29C11AFF28C10DE
:103510000EF0B2FC00BF02F070FBD4F83890B9F1A5
:10352000000F3DD0D4F80C8031462046FFF7ABFFAA
:10353000DFB9A9F10100A063206810B901F080FD96
:103540006060206908B9012000E0002010BB04F190
:10355000100001F038FBE8B14FF08050944908604A
:10356000BFF34F8FBFF36F8F14E0C4F80C80606A15
:1035700008B9012000E0002060B904F1240001F046
:1035800022FB38B14FF0805089490860BFF34F8F5C
:10359000BFF36F8F02F054FB012006B0BDE8F08747
:1035A000049818B902F04CFB0020F6E7BAF1000FBE
:1035B00004D1684601F08BFB4FF0010A02F040FB9A
:1035C00000F043FE02F019FB94F94400401C10B9CE
:1035D000002084F8440094F94500401C10B90020F4
:1035E00084F8450002F02CFB04A9684601F081FB39
:1035F00040BB2046FFF73AFFF0B1206830B902F037
:10360000FCFA606801F0EBFB02F01AFB04F1240005
:10361000049901F07AFA2046FFF7ACFD00F06AFD4C
:1036200000287FF478AF4FF0805061490860BFF305
:103630004F8FBFF36F8F6EE72046FFF79BFD00F0C3
:1036400059FD68E72046FFF795FD00F053FD204641
:10365000FFF70CFF0028EED000209EE72DE9F04197
:1036600006460F4634463CB94FF41E72AFF20031A5
:10367000AFF2F0200EF000FC01F0A2FB616888427E
:1036800004D1E068401CE06001250AE000233A46CE
:1036900019462046FFF70CFF054615B1E068401CAF
:1036A000E0602846BDE8F08170B505460E460DB1D4
:1036B000012000E0002038B940F2BD22AFF25031C5
:1036C000AFF240300EF0D8FBAE4201D8012000E04E
:1036D000002038B940F2BE22AFF26C31AFF25C305C
:1036E0000EF0CAFB022200212846FFF7A0FC044688
:1036F00004B1A663204670BD2DE9F05F80468A467E
:1037000015461E4644463CB940F29F32AFF2A03106
:10371000AFF290300EF0B0FBBAF1000F01D1206C87
:1037200008B9012000E0002038B94FF46872AFF208
:10373000C031AFF2B0300EF09FFB022E02D1E06B31
:10374000012801D1012000E0002038B940F2A13267
:10375000AFF2E431AFF2D4300EF08EFB02F0A0FAFB
:1037600000BF5021EFF3118081F31188BFF34F8F19
:10377000BFF36F8F00BF0746A06BE16B884201D398
:10378000022E2ED194F945B0324651462046FFF71D
:1037900075FC0BF10100E0B9A06C58B13146204630
:1037A000FFF7AAFCD0B1CDB10120286016E00000DF
:1037B00004ED00E0606A08B9012000E0002068B96B
:1037C00004F1240001F0FFF940B13DB1012028606F
:1037D00004E00BF1010040B284F845004FF001090C
:1037E00001E04FF0000900BF87F3118800BF484691
:1037F000BDE8F09F2DE9F04707460D463C463CB931
:1038000040F23C42AFF29841AFF288400EF034FBF8
:10381000206C08B9012000E0002038B94FF488621C
:10382000AFF2B441AFF2A4400EF026FB206808B915
:10383000606808B9012000E0002038B940F2454234
:10384000AFF2D441AFF2C4400EF016FB02F028FAFA
:1038500000BF5021EFF3118081F31188BFF34F8F28
:10386000BFF36F8F00BF0646D4F83890E06B484531
:1038700029D994F945A009F10100A0630AF10100DA
:10388000C8B9A06C40B100212046FFF735FCB8B1A3
:10389000B5B10120286013E0606A08B9012000E09A
:1038A000002068B904F1240001F08DF940B13DB168
:1038B0000120286004E00AF1010040B284F84500CC
:1038C0004FF0010801E04FF0000800BF86F31188B7
:1038D00000BF4046BDE8F0872DE9F05F0646894607
:1038E000174634463CB94FF4B462AFF27C51AFF2A4
:1038F0006C500EF0C1FAB9F1000F01D1206C08B97B
:10390000012000E0002038B940F2A152AFF2A051EE
:10391000AFF290500EF0B0FA02F0C2F900BF5021A1
:10392000EFF3118081F31188BFF34F8FBFF36F8FD7
:1039300000BF0546D4F838A0BAF1000F22D094F9A0
:1039400044B049462046FFF79EFDAAF10100A0635E
:103950000BF1010070B9206908B9012000E00020D6
:1039600068B904F1100001F02EF940B13FB1012017
:10397000386004E00BF1010040B284F844004FF0DD
:10398000010801E04FF0000800BF85F3118800BF77
:103990004046BDE8F09F2DE9F0470646884634468C
:1039A0003CB940F2FC52AFF23861AFF228600EF041
:1039B00063FAB8F1000F01D1206C08B9012000E0D2
:1039C000002038B940F2FD52AFF25C61AFF24C60BA
:1039D0000EF052FA206C08B1012000E0002038B946
:1039E00040F2FE52AFF27861AFF268600EF044FA36
:1039F00002F056F900BF5021EFF3118081F31188D6
:103A0000BFF34F8FBFF36F8F00BF0546A06B48B168
:103A1000D4F80C9041462046FFF735FDC4F80C90D1
:103A2000012700E0002700BF85F3118800BF38465A
:103A3000BDE8F08770B504463CB940F22F62AFF2A2
:103A4000D061AFF2C0600EF017FA02F0D6F8A56BA5
:103A500002F0F6F8284670BD70B5044625463DB91B
:103A600040F24162AFF2F861AFF2E8600EF004FAA2
:103A700002F0C3F8D5E90E10461A02F0E1F830461C
:103A800070BD70B504463CB940F25162AFF220718E
:103A9000AFF210700EF0F0F9A56B284670BD01462C
:103AA00000200EE0764A02EBC00252688A4207D13B
:103AB0000022734B43F8302003EBC0035A6002E04E
:103AC000401C0828EED300BF704770B50446254659
:103AD0003DB940F25D62AFF26871AFF258700EF01E
:103AE000CBF92846FFF7DBFF284602F015FA70BD38
:103AF0000146C86C7047C1647047014691F8500098
:103B0000704770B505463DB940F29372AFF2A071AF
:103B1000AFF290700EF0B0F9A86B08B9012400E084
:103B20000024204670BD70B504463CB940F2BA721C
:103B3000AFF2C471AFF2B4700EF09EF9A06BE16BFE
:103B4000884201D1012500E00025284670BD0246CB
:103B500000200BE04A4B53F8303033B9484B43F860
:103B6000301003EBC0035A6002E0401C0828F1D378
:103B700000BF70470246002000210AE0404B03EBE3
:103B8000C1035B68934203D13D4B53F8310002E01F
:103B9000491C0829F2D300BF70472DE9F0410546C2
:103BA0000E4617462C4602F028F894F94400401CB3
:103BB00010B9002084F8440094F94500401C10B965
:103BC000002084F8450002F03BF8A06B28B93A4683
:103BD000314604F1240000F0DBFF2046FFF7CAFA6B
:103BE000BDE8F08170B50446002204212046FFF7AD
:103BF0001EFA0546284670BD70B504460E4601F013
:103C0000FCFFA06C08B1002505E0A06B08B1002501
:103C100001E0A664012502F013F8284670BD2DE9E5
:103C2000F04105460F462E46B06CB84201D0002444
:103C30000AE0B06B08B1002406E001F0DEFF0020CE
:103C4000B06401F0FDFF01242046BDE8F08138B5E5
:103C500005460C460020009000232246694628466F
:103C6000FFF726FC009838BD38B5044600200090C8
:103C7000002269462046FFF72FFE009838BD00005D
:103C8000F84D002010B5002407E004EB8401FB4A46
:103C900002EB8100FFF726F9641C202CF5D3F848CD
:103CA000FFF720F9F748FFF71DF9F748FFF71AF972
:103CB000F648FFF717F9F648FFF714F9F048F54909
:103CC0000860F048F449086010BD10B5044601F0E2
:103CD00094FFF2480068401CF0490860F048006812
:103CE00040B9EF4804600846006801280DD1FFF78D
:103CF000C9FF0AE0EB48006838B9E9480068C06AC3
:103D0000E16A884201D8E6480460E7480068401C40
:103D1000E549086008460068606494F82C100120AA
:103D20008840E24909680843E0490860E16A01EB1C
:103D30008101D24A02EB8100211DFFF7E3F801F077
:103D40007FFFD848006868B1D5480068C06AE16A5A
:103D5000884207D24FF08050D5490860BFF34F8F9B
:103D6000BFF36F8F10BD2DE9F05F82460F4690467E
:103D70009B460A9E0C9C4FEA8801A522206B0EF000
:103D8000FDFAA8F10100216B01EB800929F0070978
:103D900009F0070008B9012000E0002028B940F22E
:103DA0002B32C4A1C8A00EF067F8002507E0795DAA
:103DB00004F134004155785D00B902E06D1C102D0E
:103DC000F5D300BF002143200155202E00D31F262C
:103DD000E662E66400202065201DFFF790F804F1FC
:103DE0001800FFF78CF82461C6F12000A06164621E
:103DF0000020606584F858005A465146484601F054
:103E000089FE20600B9808B10B980460BDE8F09F14
:103E10002DE9FF4F85B0804689461746DDE912AB94
:103E2000B80001F0F6FF064656B15C2001F0F1FF44
:103E300004460CB1266304E0304602F06DF800E061
:103E400000247CB10020CDE900ABCDE902403A4628
:103E500049464046089BFFF786FF2046FFF735FF9F
:103E6000012501E04FF0FF35284609B0BDE8F08F8D
:103E700088490968096809B9012100E0002121B1D8
:103E80004FF0FF31944A116006E082490968C96821
:103E9000C868914A41681160704710B50446206BAC
:103EA00002F03AF8204602F037F810BD70B505462A
:103EB00001F0A3FE15B97A48006800E028460446E0
:103EC000201DFFF745F878B9E06A00EB80006B49E8
:103ED00051F8200040B994F82C1001208840734913
:103EE0000968814371480160A06A18B104F11800A3
:103EF000FFF72EF86C480068401C6B490860684862
:103F00000068844209D1211D6048FEF7FBFF734819
:103F10000068401C7149086009E060480068401E64
:103F20005E4908602046FFF7B8FFFFF7A1FF01F0E8
:103F300087FE5C480068C0B159480068844214D1CB
:103F40006748006808B9012000E0002028B940F265
:103F5000654258A15CA00DF08FFF4FF0805054498E
:103F60000860BFF34F8FBFF36F8F70BD2DE9F04135
:103F70004FF000085A480068002872D1594800687C
:103F8000451C58480560EDB942480068006808B90A
:103F9000012000E0002028B940F6D91245A14AA02E
:103FA0000DF06AFF3B4807683B48006839490860E4
:103FB000394807604C480068401C4B490860FFF7CF
:103FC00057FF00BF4448006885423CD300BF3148DA
:103FD0000068006808B9012000E0002020B14FF01F
:103FE000FF303D4908602DE02A480068C068C46879
:103FF0006668B54202D23848066023E0201DFEF70D
:10400000A7FFA06A18B104F11800FEF7A1FF94F809
:104010002C1001208840254909680843234908607D
:10402000E16A01EB8101154A02EB8100211DFEF7D7
:1040300069FF1B49E06A0968C96A8842C7D34FF023
:104040000108C4E700BF16480068C06A00EB8000A2
:104050000A4951F82000012801D94FF0010805E074
:10406000FFE722480068401C20490860204800689B
:1040700008B14FF001084046BDE8F081384E0020FD
:10408000B8500020CC500020E0500020F450002018
:104090000851002030000020340000203C000020A7
:1040A0002C00002048000020580000204400002080
:1040B00004ED00E02E2E5C4672656552544F535C51
:1040C0007461736B732E63004572726F723A25735D
:1040D0002C25640D0A0000005C0000203800002040
:1040E0006400002040000020540000204C0000200C
:1040F0005000002070B500240026FE48006838B942
:104100004FF4FD62AFF25401AFF244000DF0B4FE83
:1041100001F073FDF7480068401EF6490860084644
:10412000006800284FD1F448006800284BD024E0F4
:10413000F248C068C46804F11800FEF709FF201DAA
:10414000FEF706FF94F82C1001208840EC4909681E
:104150000843EB490860E16A01EB8101E94A02EB9F
:104160008100211DFEF7CEFEE749E06A0968C96AB1
:10417000884202D30120E5490860E048006808B998
:10418000012000E000200028D2D00CB1FFF770FE23
:10419000DF48056865B100BFFFF7E8FE10B10120F8
:1041A000DA4908606D1E002DF6D10020D84908605C
:1041B000D648006838B101263007D6490860BFF3F9
:1041C0004F8FBFF36F8F01F03BFD304670BD2DE97F
:1041D000F04105460E46D0480768CB480068001DF0
:1041E000FEF7B6FE50B9C848006890F82C100120C0
:1041F0008840C34909688143C1480160681C38B9D7
:1042000036B1C1480168091DC448FEF77BFE1AE0BB
:104210007C19BD4800684460BC4207D2BA480168B6
:10422000091DBF480068FEF779FE0CE0B64801683A
:10423000091DBC480068FEF771FEBB480068844257
:1042400001D2B9480460BDE8F081AA480068401C6A
:10425000A849086070472DE9F04704460F464FF023
:1042600000093CB940F27942AFF2B811AFF2A810A0
:104270000DF002FE0FB1012000E0002038B940F23D
:104280007A42AFF2D011AFF2C0100DF0F5FD9948AF
:10429000006808B9012000E0002038B940F27B42F4
:1042A000AFF2F011AFF2E0100DF0E6FDFFF7CDFF39
:1042B000994806682068C5192068B04207D9206867
:1042C000A8420BD9B54209D94FF0010906E0206890
:1042D000A84201D8B54201D94FF001092560B9F1D2
:1042E000000F03D0A81B0021FFF771FFFFF702FFAB
:1042F0008046B8F1000F07D14FF080508549086023
:10430000BFF34F8FBFF36F8FBDE8F08770B50446E2
:104310000025BCB17748006808B9012000E0002002
:1043200038B940F2CF42AFF27421AFF264200DF001
:10433000A3FDFFF78AFF00212046FFF748FFFFF7A4
:10434000D9FE05463DB94FF0805072490860BFF371
:104350004F8FBFF36F8F70BD2DE9F04107463E468A
:104360003EB940F2FB42AFF2B421AFF2A4200DF00F
:1043700083FD65480068864201D100241EE001F0FB
:104380003CFC756901F05CFC66480068854203D01E
:1043900063480068854201D102240FE05F488542EE
:1043A00005D1B06A08B9032408E0022406E05F489A
:1043B000854200D00DB9042400E001242046BDE868
:1043C000F08170B5044601F018FC14B94E4800683D
:1043D00000E020460646F56A01F032FC284670BD32
:1043E0002DE9F041054601F05BFC00BF5021EFF3E1
:1043F000118081F31188BFF34F8FBFF36F8F00BF20
:10440000044615B94048006800E028460746FE6AA1
:1044100000BF84F3118800BF3046BDE8F0812DE96C
:10442000F04780460D464FF00009202D01D20120B3
:1044300000E0002038B94FF4B062AFF28831AFF23B
:1044400078300DF019FD202D00D31F2501F0D5FB8C
:10445000B8F1000F02D12C48006800E04046044645
:10446000E66CAE4277D0B5420BD92748006884424B
:104470000DD025480068C06AA84208D84FF001094D
:1044800005E021480068844201D14FF00109E76A44
:10449000E16AE06C884200D1E562E564A06900F061
:1044A000004010B9C5F12000A06107EB8701154A53
:1044B00002EB81016069884201D1012000E0002007
:1044C000B0B3201DFEF744FD30B90120B8400C49BF
:1044D000096881430A48016094F82C100120884043
:1044E00007490968084306490860E16A01EB810150
:1044F000044A1FE0640000203C000020E05000203F
:1045000044000020384E00202C00002050000020E5
:104510004C00002004ED00E0400000200851002085
:1045200034000020300000205C000020F450002007
:1045300005E010E002EB8100211DFEF7E3FCB9F17C
:10454000000F07D04FF08050FB490860BFF34F8F3A
:10455000BFF36F8F00BF01F073FBBDE8F08710B5AC
:10456000F648006818B10120F54908602FE00020E6
:10457000F3490860F3480068B0FA80F0C0F11F0406
:1045800004EB8400F04951F8200008B1012000E05C
:10459000002038B940F6F622AFF2E841AFF2D84039
:1045A0000DF06AFC04EB8401E74A02EB81004168EC
:1045B0004968416000F1080142688A4202D14168BD
:1045C000496841604168C968E04A116000BF10BD98
:1045D00070B5054601F011FB15B9DC48006800E034
:1045E00028460446201DFEF7B3FC78B9E06A00EBCC
:1045F0008000D54951F8200040B994F82C100120D2
:104600008840D04909688143CE480160A06A18B14A
:1046100004F11800FEF79CFC211DCD48FEF772FC4A
:1046200001F00EFBCB48006828B101F0E6FAFFF775
:104630001FFC01F005FBC5480068844226D1C5482F
:104640000068B8B1BD48006808B9012000E000204A
:1046500038B940F25762AFF2A451AFF294500DF066
:104660000BFC4FF08050B4490860BFF34F8FBFF38D
:104670006F8F0BE0B6480068B7490968884203D1DC
:104680000020B249086001E0FFF769FF70BD70B516
:10469000054600262C463DB940F28162AFF2EC514E
:1046A000AFF2DC500DF0E8FBA9496069884201D106
:1046B000012000E0002070B1A849A06A884201D121
:1046C000012000E0002030B9A06A08B9012000E014
:1046D000002000B10126304670BD70B505462C465D
:1046E0003DB940F2AB62AFF23461AFF224600DF03D
:1046F000C3FB74B39548006884422AD001F07DFA68
:104700002046FFF7C4FF10B3201DFEF721FC94F8EC
:104710002C10012088408B490968084389490860AA
:10472000E16A01EB8101884A02EB8100211DFEF75D
:10473000E9FB8649E06A0968C96A884207D34FF0F5
:1047400080507D490860BFF34F8FBFF36F8F01F03A
:1047500077FA70BD2DE9F0410646002734463EB990
:1047600040F2E262AFF2B461AFF2A4600DF084FBFC
:1047700001F096FA00BF5021EFF3118081F3118808
:10478000BFF34F8FBFF36F8F00BF05462046FFF783
:104790007EFF20B369480068E0B96C49E06A0968A7
:1047A000C96A884200D30127201DFEF7D1FB94F887
:1047B0002C1001208840634909680843614908605A
:1047C000E16A01EB8101604A02EB8100211DFEF7E5
:1047D00099FB04E004F118016048FEF793FB00BF69
:1047E00085F3118800BF3846BDE8F08170B523E03D
:1047F000FFF72BFD5A48006808B9012000E00020AF
:104800000546FFF777FCBDB901F0F7F95448C068D9
:10481000C468201DFEF79CFB4F480068401E4E49AF
:10482000086050480068401E4E49086001F008FAD0
:104830002046FFF732FB00BF4A4800680028D7D166
:1048400070BD00BFFFF7D2FF3F4800680128F9D9CB
:104850004FF0805038490860BFF34F8FBFF36F8F20
:10486000F0E71CB5404800210B468222CDE900103C
:104870003EA14048FFF7CCFA0446012C02D100F0DB
:10488000EDFF0446012C15D100BF502080F31188A4
:10489000BFF34F8FBFF36F8F00BF4FF0FF3036492C
:1048A000086001202B49086000203449086001F0AD
:1048B0004DF90DE0601C08B1012000E0002038B97E
:1048C00040F28472AFF61401AFF604000DF0D4FA92
:1048D0001CBD10B500BF502080F31188BFF34F8F6F
:1048E000BFF36F8F00BF00201A49086001F074F910
:1048F00010BD22490868704770B501F0D1F9002554
:104900001E480468204670BD13480068704770B5A3
:10491000044614B90D48006800E0204605463DB93C
:1049200040F68C02AFF67401AFF664000DF0A4FA05
:1049300005F1340070BD000004ED00E064000020CB
:104940005000002044000020384E00202C000020A1
:1049500008510020480000203C000020E0500020CA
:10496000F4500020380000206000002049444C45ED
:1049700000000000434800085C00002040000020C8
:104980000246002101E0521C491C1078A528FAD0EB
:10499000890888B270472DE9F04107460C469046D9
:1049A0001E4617B9F748006800E0384605462560FE
:1049B00005F134006060E86A2061286BE061686C92
:1049C000A060207B032807D1FFF73FFCA86A08B14D
:1049D00002202073FFF78EFBE86C60610020A0616D
:1049E000052E01D0267303E03846FFF7B5FC20738F
:1049F000B8F1000F04D0286BFFF7C2FF208401E05C
:104A000000202084BDE8F0812DE9F04707460C46E0
:104A100090460026206848B32046416849684160B6
:104A200000F1080142688A4202D141684968416048
:104A30004168D1F80C9000BF204641684968416048
:104A400000F1080142688A4202D141684968416028
:104A50004168CD6806EBC60007EB800143460122A2
:104A60002846FFF798FF761C4D45E5D13046BDE856
:104A7000F0872DE9F0410546884616460024202798
:104A8000FFF7E3FBC0480068804539D300BF7F1EB5
:104A900007EB8702BD4B03EB820104EBC40205EB7D
:104AA00082000122FFF7B0FF0444002FEFD104EB96
:104AB000C40105EB81000222B5490968FFF7A4FF94
:104AC000044404EBC40105EB81000222B1490968EA
:104AD000FFF79AFF044404EBC40105EB81000422B4
:104AE000AD49FFF791FF044404EBC40105EB8100DD
:104AF0000322AA49FFF788FF04440EB1002030606A
:104B0000FFF7F8FA2046BDE8F08170B504460D467F
:104B10003CB940F60632AFF66421AFF654200DF0F2
:104B2000ABF99848016818312046FEF7F7F90121E2
:104B30002846FFF74CFB70BD70B504460D4616467F
:104B40003CB940F61732AFF69421AFF684200DF051
:104B500093F99348006808B1012000E0002038B9BB
:104B600040F61B32AFF6B421AFF6A4200DF084F965
:104B700045F000408349096888618248016818311E
:104B80002046FEF7BFF901213046FFF720FB70BD3C
:104B900070B505460E4614463DB940F63132AFF6C3
:104BA000EC21AFF6DC200DF067F97648016818318A
:104BB0002846FEF7A7F90CB14FF0FF3621463046E4
:104BC000FFF705FB70BD70B50646F068C4683CB9D8
:104BD00040F66132AFF62431AFF614300DF04CF9E7
:104BE00004F11800FEF7B4F96D480068A8B9201D5B
:104BF000FEF7AEF994F82C10012088406949096845
:104C0000084368490860E16A01EB81015F4A02EBF1
:104C10008100211DFEF776F904E004F118016248D5
:104C2000FEF770F95749E06A0968C96A884204D9F1
:104C3000012501205D49086000E00025284670BD7F
:104C40002DE9F04105460F465548006808B101209E
:104C500000E0002038B940F69932AFF6A831AFF63F
:104C600098300DF009F947F000402860EC683CB935
:104C700040F6A132AFF6C431AFF6B4300DF0FCF817
:104C80002846FEF765F9201DFEF762F994F82C100E
:104C90000120884043490968084342490860E16AA5
:104CA00001EB8101394A02EB8100211DFEF72AF94F
:104CB0003449E06A0968C96A884204D9012601209A
:104CC0003A49086000E000263046BDE8F08110B5A2
:104CD00004463CB940F6C132AFF62841AFF6184061
:104CE0000DF0CAF832480068206032480068606001
:104CF00010BD2DE9F04104460D463CB940F6CB32DB
:104D0000AFF65041AFF640400DF0B6F83DB940F671
:104D1000CC32AFF66041AFF650400DF0ADF800F088
:104D20006CFF244807682868401C08B9002619E071
:104D30001F4920680968884204D06068B84201D8D9
:104D400001260FE06068381A2968884209D228686D
:104D50006168791A401A28602046FFF7B8FF0026DC
:104D600000E0012600F06CFF3046BDE8F081012034
:104D70000E4908607047014611B10A46906C00E088
:104D8000002070472C0000203C000020384E0020FE
:104D90003000002034000020F45000200851002092
:104DA0006400002044000020E0500020500000205B
:104DB000540000204000002008B102469164704772
:104DC000FB4908687047FB49096809B9012005E0FB
:104DD000F949096809B9022000E00020704770B560
:104DE00005462C46002D4BD0F149E06A0968C96A96
:104DF000884245D2A06900F0004028B9EC4800681C
:104E0000C06AC0F12000A061E16A01EB8101EB4AB8
:104E100002EB81016069884201D1012000E000209D
:104E200050B3201DFEF794F878B9E06A00EB8000DB
:104E3000E24951F8200040B994F82C100120884034
:104E4000DF4909688143DE480160D9480068C06ACB
:104E5000E06294F82C1001208840D9490968084381
:104E6000D7490860E16A01EB8101D44A02EB810075
:104E7000211DFEF747F803E0CD480068C06AE062F4
:104E800070BD70B505462C460026002D4FD0C84891
:104E90000068844201D1012000E0002038B940F6CA
:104EA000C762AFF6F051AFF6E0500CF0E5FF206DB1
:104EB00038B940F6C962AFF60461AFF6F4500CF0B1
:104EC000DBFF206D401E2065E16CE06A88422ED039
:104ED000206D60BB201DFEF73BF878B9E06A00EB5F
:104EE0008000B64951F8200040B994F82C100120F8
:104EF0008840B34909688143B1480160E06CE062D1
:104F0000E06AC0F12000A06194F82C1001208840D4
:104F1000AB4909680843AA490860E16A01EB8101CD
:104F2000A64A02EB8100211DFDF7ECFF0126304669
:104F300070BD70B505460E46314628460DF096F90F
:104F400028460DF0B7F9044602E020202855641CDD
:104F50000F2CFAD300202855281970BD7FB50546BF
:104F6000002028709748006803909649096801EB73
:104F7000C101880000F04DFF0446002C53D00022F0
:104F800020460399FFF775FD03900020029043E04F
:104F9000029800EBC00004EB8000007B012806D0E3
:104FA000022806D0032806D0042808D105E052269E
:104FB00007E0422605E0532603E0442601E00026F0
:104FC00000BF00BF029800EBC00004EB8000416806
:104FD0002846FFF7AEFF0546029800EBC00004EB41
:104FE00080008068029901EBC10104EB8101098C0A
:104FF000CDE90010029800EBC00004EB80003246BF
:1050000071A1036928460CF043FF28460DF052F9C0
:1050100005440298401C0290DDE902018842B7D3A2
:10502000204600F079FF7FBD6149096888696049C1
:105030000968C96AC1F120015D4A1268916170472F
:105040005B48006830B15A49096801F15000096DA8
:10505000491C016056480068704770B506460D4609
:1050600000F0CBFD52480068406D88B901205049DE
:10507000096881F858005DB101212846FFF7A7F8BB
:105080004FF0805054490860BFF34F8FBFF36F8FCC
:1050900000F0D6FD00F0B1FD45480068446D4CB10C
:1050A00026B1002042490968486503E0601E404976
:1050B0000968486500203E49096881F8580000F0F9
:1050C000BFFD204670BD2DE9F041074688461446D5
:1050D0001D4600F092FD3648006890F858000228FE
:1050E00018D03349096801F15400496DB943016092
:1050F00001202F49096881F858005DB10121284637
:10510000FFF765F84FF0805033490860BFF34F8FC9
:10511000BFF36F8F00F094FD00F06FFD1CB12448C9
:105120000068406D20602248006890F8580001280F
:1051300001D1002608E01E49096801F15400496DBB
:1051400021EA08010160012600201949096881F857
:10515000580000F075FD3046BDE8F0812DE9F047BC
:1051600006460D46174698464FF0010A36B941F2F9
:10517000FD021A4901F114000CF07EFE344600F0E5
:105180003CFDB8F1000F02D0606DC8F8000094F843
:105190005890022084F85800052F30D2DFE807F03D
:1051A0002E0320242600606D2843606527E0000060
:1051B0002C0000204800002064000020384E002011
:1051C000440000203C0000200925630925750925BD
:1051D000750925750D0A000004ED00E0B4400008D3
:1051E000606D401C60650AE0656508E0B9F1020F7A
:1051F00001D0656501E04FF0000A00E000BF00BF8C
:10520000B9F1010F2FD1201DFDF7A2FE94F82C104B
:10521000012088409B49096808439A490860E16A6F
:1052200001EB8101984A02EB8100211DFDF76AFE26
:10523000A06A08B9012000E0002030B941F235121F
:10524000924901F114000CF017FE9149E06A0968D7
:10525000C96A884207D94FF080508E490860BFF371
:105260004F8FBFF36F8F00F0EBFC5046BDE8F08727
:105270002DE9F84F07460E4690469946DDF828B0CE
:105280000120009037B941F26812804901F1140001
:105290000CF0F2FD00F004FD3C4600BF5021EFF39E
:1052A000118081F31188BFF34F8FBFF36F8F00BF61
:1052B0000546B9F1000F02D0606DC9F8000094F8FE
:1052C00058A0022084F85800B8F1050F17D2DFE883
:1052D00008F01503070B0D00606D304360650EE0AC
:1052E000606D401C60650AE0666508E0BAF1020F77
:1052F00001D0666501E00020009000E000BF00BF23
:10530000BAF1010F3AD1A06A08B9012000E00020EB
:1053100030B941F2AF125D4901F114000CF0ACFD5F
:105320005D480068A8B9201DFDF712FE94F82C1006
:105330000120884053490968084352490860E16ADE
:1053400001EB8101504A02EB8100211DFDF7DAFDDE
:1053500004E004F118015148FDF7D4FD4C49E06A1E
:105360000968C96A884209D9BBF1000F03D001203E
:10537000CBF8000002E001204949086000BF85F336
:10538000118800BF0098BDE8F88F2DE9F04105466F
:105390000F4635B941F2E3123C4901F114000CF01B
:1053A0006BFD00F07DFC2C4600BF5021EFF3118017
:1053B00081F31188BFF34F8FBFF36F8F00BF064695
:1053C00094F85880022084F85800606D401C606595
:1053D000B8F1010F37D1A06A08B9012000E0002020
:1053E00030B941F20922294901F114000CF044FDC1
:1053F00029480068A8B9201DFDF7AAFD94F82C10D3
:10540000012088401F49096808431E490860E16A75
:1054100001EB81011C4A02EB8100211DFDF772FDA9
:1054200004E004F118011D48FDF76CFD1849E06A1D
:105430000968C96A884206D917B10120386002E0BC
:1054400001201749086000BF86F3118800BFBDE83E
:10545000F08170B5054615B90D48006800E0284692
:10546000064600F0CAFB96F85800022804D1002036
:1054700086F85800012400E0002400F0E1FB2046FB
:1054800070BD000044000020384E0020B4400008E9
:105490002C00002004ED00E064000020E05000201B
:1054A000500000202DE9F04104460D4616461F46E7
:1054B0004FF0000865602461B5420CD8F01BA1696B
:1054C000884202D34FF0010811E0211DF74800681F
:1054D000FDF724FD0BE0BE4204D2BD4202D34FF0E3
:1054E000010804E0211DF2480068FDF717FD404661
:1054F000BDE8F0812DE9FF4704460D4616461F46DC
:10550000DDF830804FF000092CB94FF4D372E9A1D7
:10551000EEA00CF0B1FCF148006810B300950196C4
:105520000294062D15DAFFF74EFC022808D100235D
:1055300042466946E9480068FDF774FE814610E07E
:1055400000231A466946E5480068FDF76BFE814670
:1055500007E000233A466946E0480068FEF7CCF8C9
:105560008146484604B0BDE8F0872DE9F8432DE0B8
:10557000CF480068C0680568CD480068C068C46846
:10558000201DFDF7E5FC2046616A8847E069012897
:105590001CD1A0694619AE4207D966602461211D5D
:1055A000C3480068FDF7BAFC10E0002003462A4615
:1055B000014600902046FFF79DFF07462FB940F2B5
:1055C0009232BCA1C1A00CF057FC00BFB8480068E3
:1055D000006808B9012000E000200028C8D0B448C5
:1055E000D0F80080B1480068B1490860AF48C0F801
:1055F0000080BDE8F88370B50446FFF77AF90546E8
:10560000B7480068854204D2FFF7AFFF0120206051
:1056100001E000202060B2480560284670BDF0B56A
:1056200087B070E0039800280CDA04AE2EB940F27F
:10563000E722A0A1A5A00CF01FFCD6E90020B168CC
:10564000904700BF039800285DDB059C606908B99E
:10565000012000E0002010B9201DFDF779FC02A810
:10566000FFF7C9FF054603980A284AD2DFE800F091
:105670000905072C2E4506082D2F00BF00BF00BFCF
:1056800000BF0498A269811803462A462046FFF706
:1056900009FFC0B12046616A8847E069012812D13C
:1056A000002000900498A169421800231946204662
:1056B000FFF720FF07462FB940F221327DA183A0DA
:1056C0000CF0DAFB00BF1DE000BF1BE000BF049838
:1056D000A061A06908B1012000E0002028B94FF4C2
:1056E0004E7274A179A00CF0C7FBA06941192B463A
:1056F0002A462046FFF7D6FE04E0204600F00CFCC8
:1057000000E000BF00BF00231A4603A973480068E9
:10571000FDF7CEFE002885D107B0F0BDF8B50546EF
:105720000F4663480068C068C468201DFDF710FC80
:10573000E069012818D1A06941192B463A46204654
:10574000FFF7B0FE80B1002003462A4601460090D4
:105750002046FFF7CFFE06462EB94FF4027255A140
:105760005AA00CF089FB00BF2046616A8847F8BD4B
:10577000F8B505460C46FEF768FD6846FFF73BFFA7
:105780000646009820BB44B9B54206D8FEF7B2FCE5
:1057900031462846FFF7C2FF1CE03CB14348006891
:1057A000006808B9012000E000200446A91B224639
:1057B0004A480068FEF7F1F9FEF79CFC50B94FF03B
:1057C000805048490860BFF34F8FBFF36F8F01E0EF
:1057D000FEF790FCF8BD0146354A126812680AB916
:1057E000012200E000220A600A6822B9304A1268E9
:1057F000D268106800E00020704708B500BF684616
:10580000FFF7E9FF044620460099FFF7B1FFFFF7D5
:1058100006FFF4E710B500F0F0F930480068D0B9A1
:105820003148FDF75FFB3148FDF75CFB2E4820490E
:1058300008602E481D490860002210210520FDF750
:10584000F6FB264908600846006820B128A12348D5
:105850000068FEF77CF900F0F3F910BD1CB50024D8
:10586000FFF7D8FF1D48006858B123481F210023C7
:105870004FF48272CDE9001020A12248FEF7C8FA49
:1058800004462CB940F233120AA110A00CF0F4FA2D
:1058900020461CBD2DE9F04706460D4617469846A2
:1058A000DDE908940DB101202FE02DE06C0000200F
:1058B000680000202E2E5C4672656552544F535C82
:1058C00074696D6572732E63000000004572726F1B
:1058D000723A25732C25640D0A0000007000002028
:1058E0007800002004ED00E01C5100203051002021
:1058F000546D72510000000074000020546D72203D
:1059000053766300FB570008002038B94FF4C67285
:10591000AFF26001AFF24C000CF0AEFA5CB1FFF7F1
:1059200079FF2660A561E761C4F82080C4F824905F
:10593000201DFDF7E4FABDE8F0872DE9FC47054698
:105940000E4617469846DDF828902C2000F061FAA4
:1059500004463CB143463A4631462846CDE90094D8
:10596000FFF798FF2046BDE8FC8710B55B4800684C
:1059700008B1012000E0002038B94FF4E872AFF21E
:10598000CC01AFF2B8000CF077FA5448006810BDB3
:1059900070B5044625463CB940F2D912AFF2EC018D
:1059A000AFF2D8000CF068FAA86970BD70B5044673
:1059B00025463CB940F2E312AFF20811AFF2F40011
:1059C0000CF05AFA6E68304670BD70B50446254634
:1059D0003CB940F2ED12AFF22411AFF210100CF00E
:1059E0004BFA286870BD70B5044626463CB940F2B3
:1059F000DA32AFF24011AFF22C100CF03DFA00F0A9
:105A0000FCF8706908B9012000E0002080F0010571
:105A100000F016F9284670BD70B5044626463CB91C
:105A200040F2EF32AFF27411AFF260100CF024FAD2
:105A300000F0E3F8356A00F003F9284670BD70B550
:105A400004460D4626463CB940F2FF32AFF29C11A7
:105A5000AFF288100CF010FA00F0CFF8356200F0C9
:105A6000EFF870BD2DE9FF4104460D4616461F466E
:105A70006FF00100009001940295039600233A46CE
:105A8000694617480068FDF737FE8046404604B077
:105A9000BDE8F0812DE9FF4104460D4616461F463C
:105AA0000F48006838B940F22B42AFF2F811AFF25C
:105AB000E4100CF0E1F94FF0FF30009001940295F2
:105AC000039600233A46694605480068FDF7AAFB9D
:105AD0008046404604B0BDE8F0810000740000201C
